{
  "contractName": "Voting",
  "abi": [
    {
      "inputs": [],
      "stateMutability": "nonpayable",
      "type": "constructor"
    },
    {
      "inputs": [],
      "name": "admin",
      "outputs": [
        {
          "internalType": "address",
          "name": "",
          "type": "address"
        }
      ],
      "stateMutability": "view",
      "type": "function",
      "constant": true
    },
    {
      "inputs": [
        {
          "internalType": "uint256",
          "name": "",
          "type": "uint256"
        }
      ],
      "name": "ballots",
      "outputs": [
        {
          "internalType": "uint256",
          "name": "id",
          "type": "uint256"
        },
        {
          "internalType": "string",
          "name": "name",
          "type": "string"
        },
        {
          "internalType": "uint256",
          "name": "end",
          "type": "uint256"
        }
      ],
      "stateMutability": "view",
      "type": "function",
      "constant": true
    },
    {
      "inputs": [
        {
          "internalType": "address",
          "name": "",
          "type": "address"
        }
      ],
      "name": "voters",
      "outputs": [
        {
          "internalType": "bool",
          "name": "",
          "type": "bool"
        }
      ],
      "stateMutability": "view",
      "type": "function",
      "constant": true
    },
    {
      "inputs": [
        {
          "internalType": "address[]",
          "name": "_voters",
          "type": "address[]"
        }
      ],
      "name": "addVoters",
      "outputs": [],
      "stateMutability": "nonpayable",
      "type": "function"
    },
    {
      "inputs": [
        {
          "internalType": "string",
          "name": "name",
          "type": "string"
        },
        {
          "internalType": "string[]",
          "name": "_choices",
          "type": "string[]"
        },
        {
          "internalType": "uint256",
          "name": "offset",
          "type": "uint256"
        }
      ],
      "name": "createBallot",
      "outputs": [],
      "stateMutability": "nonpayable",
      "type": "function"
    },
    {
      "inputs": [
        {
          "internalType": "uint256",
          "name": "ballotId",
          "type": "uint256"
        },
        {
          "internalType": "uint256",
          "name": "choiceId",
          "type": "uint256"
        }
      ],
      "name": "vote",
      "outputs": [],
      "stateMutability": "nonpayable",
      "type": "function"
    },
    {
      "inputs": [
        {
          "internalType": "uint256",
          "name": "ballotId",
          "type": "uint256"
        }
      ],
      "name": "results",
      "outputs": [
        {
          "components": [
            {
              "internalType": "uint256",
              "name": "id",
              "type": "uint256"
            },
            {
              "internalType": "string",
              "name": "name",
              "type": "string"
            },
            {
              "internalType": "uint256",
              "name": "votes",
              "type": "uint256"
            }
          ],
          "internalType": "struct Voting.Choice[]",
          "name": "",
          "type": "tuple[]"
        }
      ],
      "stateMutability": "view",
      "type": "function",
      "constant": true
    }
  ],
  "bytecode": "0x608060405234801561001057600080fd5b50600380546001600160a01b03191633179055610c42806100326000396000f3fe608060405234801561001057600080fd5b506004361061007d5760003560e01c80638203373a1161005b5780638203373a146100e2578063a3ec138d146100f5578063b384abef14610115578063f851a440146101285761007d565b80631b0c27da1461008257806320faae8e146100ab5780635c632b38146100c0575b600080fd5b6100956100903660046108d6565b61013d565b6040516100a2919061096e565b60405180910390f35b6100be6100b936600461080c565b610289565b005b6100d36100ce3660046108d6565b6103d9565b6040516100a293929190610b1f565b6100be6100f036600461079d565b610483565b61010861010336600461076f565b610531565b6040516100a291906109ec565b6100be6101233660046108ee565b610546565b61013061065c565b6040516100a2919061095a565b60008181526001602052604090206003015460609042101561017a5760405162461bcd60e51b815260040161017190610ad1565b60405180910390fd5b600082815260016020908152604080832060020180548251818502810185019093528083529193909284015b8282101561027e5783829060005260206000209060030201604051806060016040529081600082015481526020016001820180546101e390610b8a565b80601f016020809104026020016040519081016040528092919081815260200182805461020f90610b8a565b801561025c5780601f106102315761010080835404028352916020019161025c565b820191906000526020600020905b81548152906001019060200180831161023f57829003601f168201915b50505050508152602001600282015481525050815260200190600101906101a6565b505050509050919050565b6003546001600160a01b031633146102b35760405162461bcd60e51b815260040161017190610a7f565b600254600081815260016020818152604090922092835585516102dc939091019186019061066b565b506102e78142610b72565b6002546000908152600160205260408120600301919091555b82518110156103be57600160006002548152602001908152602001600020600201604051806060016040528083815260200185848151811061035257634e487b7160e01b600052603260045260246000fd5b602090810291909101810151825260009181018290528354600181810186559483529181902083516003909302019182558281015180519394929361039e93850192919091019061066b565b5060408201518160020155505080806103b690610bc5565b915050610300565b50600280549060006103cf83610bc5565b9190505550505050565b6001602081905260009182526040909120805491810180546103fa90610b8a565b80601f016020809104026020016040519081016040528092919081815260200182805461042690610b8a565b80156104735780601f1061044857610100808354040283529160200191610473565b820191906000526020600020905b81548152906001019060200180831161045657829003601f168201915b5050505050908060030154905083565b6003546001600160a01b031633146104ad5760405162461bcd60e51b815260040161017190610a7f565b60005b8181101561052c5760016000808585858181106104dd57634e487b7160e01b600052603260045260246000fd5b90506020020160208101906104f2919061076f565b6001600160a01b031681526020810191909152604001600020805460ff19169115159190911790558061052481610bc5565b9150506104b0565b505050565b60006020819052908152604090205460ff1681565b3360009081526020819052604090205460ff16151560011461057a5760405162461bcd60e51b815260040161017190610aa3565b33600090815260046020908152604080832085845290915290205460ff16156105b55760405162461bcd60e51b8152600401610171906109f7565b60008281526001602052604090206003015442106105e55760405162461bcd60e51b815260040161017190610a3c565b3360009081526004602090815260408083208584528252808320805460ff19166001908117909155909152902060020180548290811061063557634e487b7160e01b600052603260045260246000fd5b60009182526020822060026003909202010180549161065383610bc5565b91905055505050565b6003546001600160a01b031681565b82805461067790610b8a565b90600052602060002090601f01602090048101928261069957600085556106df565b82601f106106b257805160ff19168380011785556106df565b828001600101855582156106df579182015b828111156106df5782518255916020019190600101906106c4565b506106eb9291506106ef565b5090565b5b808211156106eb57600081556001016106f0565b600082601f830112610714578081fd5b813567ffffffffffffffff81111561072e5761072e610bf6565b610741601f8201601f1916602001610b48565b818152846020838601011115610755578283fd5b816020850160208301379081016020019190915292915050565b600060208284031215610780578081fd5b81356001600160a01b0381168114610796578182fd5b9392505050565b600080602083850312156107af578081fd5b823567ffffffffffffffff808211156107c6578283fd5b818501915085601f8301126107d9578283fd5b8135818111156107e7578384fd5b86602080830285010111156107fa578384fd5b60209290920196919550909350505050565b600080600060608486031215610820578081fd5b833567ffffffffffffffff80821115610837578283fd5b61084387838801610704565b9450602091508186013581811115610859578384fd5b8601601f81018813610869578384fd5b80358281111561087b5761087b610bf6565b6108888485830201610b48565b8181528481019350828501865b838110156108be576108ac8c888435880101610704565b86529486019490860190600101610895565b50508096505050505050604084013590509250925092565b6000602082840312156108e7578081fd5b5035919050565b60008060408385031215610900578182fd5b50508035926020909101359150565b60008151808452815b8181101561093457602081850181015186830182015201610918565b818111156109455782602083870101525b50601f01601f19169290920160200192915050565b6001600160a01b0391909116815260200190565b60208082528251828201819052600091906040908185019080840286018301878501865b838110156109de57603f19898403018552815160608151855288820151818a8701526109c08287018261090f565b92890151958901959095525094870194925090860190600101610992565b509098975050505050505050565b901515815260200190565b60208082526025908201527f766f7465722063616e206f6e6c7920766f7465206f6e636520666f7220612062604082015264185b1b1bdd60da1b606082015260800190565b60208082526023908201527f63616e206f6e6c7920766f746520756e74696c2062616c6c6f7420656e64206460408201526261746560e81b606082015260800190565b6020808252600a908201526937b7363c9030b236b4b760b11b604082015260600190565b6020808252601490820152736f6e6c7920766f746572732063616e20766f746560601b604082015260600190565b6020808252602e908201527f63616e6e6f7420736565207468652062616c6c6f7420726573756c742062656660408201526d1bdc994818985b1b1bdd08195b9960921b606082015260800190565b600084825260606020830152610b38606083018561090f565b9050826040830152949350505050565b60405181810167ffffffffffffffff81118282101715610b6a57610b6a610bf6565b604052919050565b60008219821115610b8557610b85610be0565b500190565b600281046001821680610b9e57607f821691505b60208210811415610bbf57634e487b7160e01b600052602260045260246000fd5b50919050565b6000600019821415610bd957610bd9610be0565b5060010190565b634e487b7160e01b600052601160045260246000fd5b634e487b7160e01b600052604160045260246000fdfea2646970667358221220b247b58134fecab14c56b0a2ca30cdd56fef57a2c03eb7a99072abd56005b87f64736f6c63430008000033",
  "immutableReferences": {},
  "source": "// SPDX-License-Identifier: MIT \r\npragma solidity ^0.8.0;\r\n\r\ncontract Voting {\r\n  mapping(address => bool) public voters;\r\n  struct Choice {\r\n    uint id;\r\n    string name;\r\n    uint votes;\r\n  }\r\n  struct Ballot {\r\n    uint id;\r\n    string name;\r\n    Choice[] choices;\r\n    uint end;\r\n  }\r\n  mapping(uint => Ballot) public ballots;\r\n  uint nextBallotId;\r\n  address public admin;\r\n  mapping(address => mapping(uint => bool)) votes;\r\n  \r\n  constructor() {\r\n    admin = msg.sender;\r\n  }\r\n  \r\n  function addVoters(address[] calldata _voters) external onlyAdmin() {\r\n    for(uint i = 0; i < _voters.length; i++) {\r\n        voters[_voters[i]] = true;\r\n    }\r\n  }\r\n\r\n  function createBallot(\r\n    string memory name,\r\n    string[] memory _choices,\r\n    uint offset\r\n    ) public onlyAdmin() {\r\n      ballots[nextBallotId].id = nextBallotId;\r\n      ballots[nextBallotId].name = name;\r\n      ballots[nextBallotId].end = block.timestamp + offset;\r\n      for(uint i = 0; i < _choices.length ; i++) {\r\n        ballots[nextBallotId].choices.push(Choice(i, _choices[i], 0));\r\n      }\r\n      nextBallotId++;\r\n  }\r\n\r\n  function vote(uint ballotId, uint choiceId) external {\r\n    require(voters[msg.sender] == true, 'only voters can vote');\r\n    require(votes[msg.sender][ballotId] == false, 'voter can only vote once for a ballot');\r\n    require(block.timestamp < ballots[ballotId].end, 'can only vote until ballot end date');\r\n    votes[msg.sender][ballotId] = true;\r\n    ballots[ballotId].choices[choiceId].votes++;\r\n  }\r\n\r\n  //If `pragma experimental ABIEncoderV2`\r\n  function results(uint ballotId) \r\n    view \r\n    external \r\n    returns(Choice[] memory) {\r\n    require(block.timestamp >= ballots[ballotId].end, 'cannot see the ballot result before ballot end');\r\n    return ballots[ballotId].choices;\r\n  }\r\n\r\n  modifier onlyAdmin() {\r\n    require(msg.sender == admin, 'only admin');\r\n    _;\r\n  }\r\n}\r\n\r\n",
  "sourcePath": "C:\\Users\\cassi\\Documents\\DApps\\Voting\\contracts\\Voting.sol",
  "compiler": {
    "name": "solc",
    "version": "0.8.0+commit.c7dfd78e.Emscripten.clang"
  },
  "schemaVersion": "3.4.16",
  "updatedAt": "2023-11-18T16:18:36.394Z",
  "networkType": "ethereum",
  "devdoc": {
    "kind": "dev",
    "methods": {},
    "version": 1
  },
  "userdoc": {
    "kind": "user",
    "methods": {},
    "version": 1
  }
}